:100000000C9464000C948C000C948C000C948C0068
:100010000C948C000C948C000C948C000C948C0030
:100020000C948C000C948C000C948C000C948C0020
:100030000C948C000C948C000C948C000C948C0010
:100040000C9406050C948C000C94C3060C940A07BF
:100050000C948C000C948C000C948C000C948C00F0
:100060000C948C000C948C000000000024002700ED
:100070002A0000000000250028002B0000000000DE
:1000800023002600290004040404040404040202DA
:100090000202020203030303030301020408102007
:1000A0004080010204081020010204081020000012
:1000B0000007000201000003040600000000000029
:1000C0000000B5004708AE0011241FBECFEFD8E0F6
:1000D000DEBFCDBF11E0A0E0B1E0E6E1F3E102C098
:1000E00005900D92AC31B107D9F711E0ACE1B1E068
:1000F00001C01D92A73EB107E1F710E0C6ECD0E0C9
:1001000004C02297FE010E947A09C23CD107C9F7B8
:100110000E949D080C947E090C940000DC0101C033
:100120006D9341505040E0F708958130910561F49E
:100130006F5F7F4F91F482E291E06CE570E048E000
:1001400023E00E949F030895892B39F46F5F7F4F4E
:1001500021F482E291E00E948F03089580E090E014
:100160006FEF7FEF0E949500089581E090E06FEFC0
:100170007FEF0E94950008958F929F92AF92BF9259
:10018000CF92DF92EF92FF920F931F93CF93DF9363
:100190005B016C014A01C0E0D0E07A010027F7FC66
:1001A0000095102F82E291E0BE01A60195010E9408
:1001B00019021814190444F482E291E00E94CC025E
:1001C000C801B7010E94C7052196CC35D10551F76A
:1001D00082E291E00E94CC02DF91CF911F910F91BA
:1001E000FF90EF90DF90CF90BF90AF909F908F9057
:1001F00008950F93809132019091330182309105DF
:10020000F1F08330910509F453C0019709F08DC0D6
:1002100081E491E00E94C107181619060CF085C010
:1002200081E491E00E94DD079093350180933401D1
:100230008134910509F079C082E090E02DC081E41D
:1002400091E00E94C107059708F46FC081E491E036
:100250006CE171E045E050E00E94020940913601F6
:100260005091370120E030E0F901E45EFE4F9081CB
:100270002F5F3F4FF901EA5FFE4F8081981731F4FD
:1002800040E050E02530310579F70BC0509337013D
:100290004093360181E090E09093330180933201E6
:1002A00044C0109237011092360183E090E0F4CF01
:1002B00081E491E00E94C1070397F4F081E491E0AA
:1002C0006CE171E043E050E00E9402096091360168
:1002D000709137016F5F7F4F7093370160933601E4
:1002E0006150704082E291E040911C0120911D011B
:1002F00000911E010E94C301809136019091370147
:100300008D35910594F082E291E00E94CC0284E167
:1003100090E00E94820581E090E090933301809309
:10032000320110923701109236010F9108950F9308
:100330001F9302E211E0C8010E94BC02C80164EBF5
:100340000E94760260E070E080E090E040E050E0E3
:100350000E94BC0063E370E080E090E045E050E084
:100360000E94BC0081E491E040E251EA67E070E065
:100370000E943A0781E090E090933301809332012C
:100380001F910F9108950F93DC01522F8D919C9135
:1003900011976817790708F04AC016962C9116979E
:1003A000222359F130E0842F90E0FC01E29FC0014C
:1003B000E39F900DF29F900D1124892F990F990BB7
:1003C000482F852F90E0FC01E29FC001E39F900D34
:1003D000F29F900D1124892F990F990B582F802F80
:1003E00090E0FC01E29FC001E39F900DF29F900D11
:1003F0001124892F990F990B082FCB01880F991F72
:10040000860F971F1796ED91FC911897E80FF91F2B
:1004100014968C919F012F5F3F4F80FF03C0508344
:10042000418302C040835183F901319600830F91CB
:1004300008951F93CF93DF93EC018881998168170A
:10044000790708F04FC0CA01AA27BB27182FBB277E
:10045000A52F942F832FA82F422F2E81222359F1CD
:1004600030E0812F90E0FC01E29FC001E39F900DFE
:10047000F29F900D1124892F990F990B182F8A2F15
:1004800090E0FC01E29FC001E39F900DF29F900D70
:100490001124892F990F990BA82F842F90E0AC017C
:1004A000429FC001439F900D529F900D1124892FB0
:1004B000990F990B482FCB01880F991F860F971F13
:1004C000EF81F885E80FF91F8C819F012F5F3F4F67
:1004D00080FF03C0A083118302C01083A183F901B0
:1004E00031964083DF91CF911F910895FF920F9332
:1004F0001F93CF93DF93EC01862FF62EF3942E817A
:10050000F216A1F10F811885622F615019F420E0D5
:1005100030E014C08F3F59F4262F30E040E050E027
:100520006FEF7FEF80E090E00E945D0907C09F2D94
:1005300080E0019770E00E9427099B0160E070E075
:100540000FC0F801808190E0AC01249FC001259F7D
:10055000900D349F900D112491938F016F5F7F4F09
:100560008A819B816817790760F3FE82DF91CF91C2
:100570001F910F91FF9008950F931F938C01FC0121
:10058000858161E00E942F06F801858160E00E946C
:100590006E061F910F910895EF92FF920F931F9394
:1005A000DF93CF93CDB7DEB727970FB6F894DEBFB2
:1005B0000FBECDBF8C01DC0117968D919C911897D1
:1005C000892B09F49FC00E945C05F80121853285C2
:1005D00043855485621B730B840B950B6233710545
:1005E0008105910580F3F894D80112968D919C9124
:1005F00013979F838E831796ED90FC901897F701C1
:1006000081917F01898314968C9114971D96ED91A9
:10061000FC911E971F969C9181FF30C08081892B91
:100620008A838081909598239B838B818D8388E03A
:100630008C836A815B8129813C814D818E819F8180
:10064000D701608327FD462F3A954083452F39F027
:10065000221F00C000005083000000C0F2CF38E02D
:100660002D9150830000019761F7D8011E96FC93ED
:10067000EE931D9729833C834D833AC08081892B5B
:100680008A838081909598239B838B818C8388E0DB
:100690008D836A815B8129813D814C818E819F811F
:1006A000D701608327FD462F00C000C0408300C0F3
:1006B00000C000C000C000C050830000452F3A9524
:1006C00041F0221F000000C000C000C000C000C0F8
:1006D000E8CF38E02D9100C0508300C0019709F7A2
:1006E000D8011E96FC93EE931D9729833D834C837E
:1006F0009F838E8378940E945C05F80161877287DE
:100700008387948727960FB6F894DEBF0FBECDBFC0
:10071000CF91DF911F910F91FF90EF900895CF93AC
:10072000DF93EC018F819885009711F00E946E0491
:100730008D8160E00E942F06DF91CF910895CF93C5
:10074000DF93EC0179836883CB01880F991F860FB3
:10075000971F9B838A832C834D8318861F8250E0CA
:10076000FA01EA57FF4FE491F0E0EE0FFF1FEE5859
:10077000FF4F259134913E872D8746565F4FFA01F2
:1007800044914F870E94D10398878F83009731F05F
:100790004A815B8160E070E00E948E00DF91CF9122
:1007A00008950F931F93CF93DF93BC01823091057F
:1007B00010F462E070E0E091E501F091E60140E0C4
:1007C00050E0A0E0B0E024C08081918186179707B7
:1007D000D0F08617970771F482819381109729F0E2
:1007E00013969C938E9312972CC09093E60180935E
:1007F000E50127C04115510519F08417950718F434
:100800008D01AC01EF01DF01828193819C01F9012F
:100810003097D1F641155105F9F0CA01861B970BA7
:100820008430910580F48A819B810115110521F0A6
:10083000F8019383828304C09093E6018093E501DD
:10084000FE01329645C0FE01E80FF91F61937193D6
:100850000297998388833CC08091E3019091E401E1
:10086000892B41F480910201909103019093E4015E
:100870008093E30140910401509105014115510518
:1008800041F44DB75EB78091000190910101481B82
:10089000590B2091E3013091E40124173507B0F49E
:1008A000CA01821B930B8617970780F0AB014E5F3E
:1008B0005F4F8417950750F0420F531F5093E40188
:1008C0004093E301F9016193719302C0E0E0F0E02D
:1008D000CF01DF91CF911F910F910895CF93DF93B7
:1008E0009C01009709F48FC0EC0122971B821A82A9
:1008F0006091E5017091E6016115710581F48881CF
:100900009981820F931F2091E3013091E401281710
:10091000390739F5D093E401C093E30174C0DB01DA
:1009200040E050E0AC17BD0708F1BB83AA83FE018D
:1009300021913191E20FF31FAE17BF0779F48D912A
:100940009C911197280F391F2E5F3F4F39832883C1
:1009500012968D919C9113979B838A834115510523
:1009600071F4D093E601C093E5014DC012968D91CC
:100970009C911397AD01009711F0DC01D3CFDA0100
:100980001396DC93CE931297FA0121913191E20FE5
:10099000F31FCE17DF0769F488819981280F391F6B
:1009A0002E5F3F4FFA01318320838A819B8193839D
:1009B0008283E0E0F0E0DB0112968D919C91139729
:1009C000009719F0BC01FD01F6CFAB014E5F5F4F00
:1009D000DB018D919C91840F951F2091E301309153
:1009E000E4012817390779F4309729F41092E601C9
:1009F0001092E50102C0138212824250504050937F
:100A0000E4014093E301DF91CF9108951F920F928B
:100A10000FB60F9211242F933F938F939F93AF9311
:100A2000BF9380913C0190913D01A0913E01B09116
:100A30003F01309140010196A11DB11D232F2D5F73
:100A40002D3720F02D570196A11DB11D2093400197
:100A500080933C0190933D01A0933E01B0933F01F0
:100A60008091380190913901A0913A01B0913B01F8
:100A70000196A11DB11D8093380190933901A09377
:100A80003A01B0933B01BF91AF919F918F913F91FC
:100A90002F910F900FBE0F901F9018958FB7F8945D
:100AA00020913C0130913D0140913E0150913F0128
:100AB0008FBFB901CA0108959FB7F89420913801FA
:100AC0003091390140913A0150913B0186B5A89B84
:100AD00006C08F3F21F02F5F3F4F4F4F5F4F9FBFAB
:100AE000542F432F322F2227280F311D411D511D16
:100AF00082E0220F331F441F551F8A95D1F7B90199
:100B0000CA010895019739F0880F991F880F991F1E
:100B100002970197F1F70895789484B5826084BDB7
:100B200084B5816084BD85B5826085BD85B58160F1
:100B300085BDEEE6F0E0808181608083E1E8F0E051
:100B40001082808182608083808181608083E0E880
:100B5000F0E0808181608083E1EBF0E0808184605F
:100B60008083E0EBF0E0808181608083EAE7F0E061
:100B700080818460808380818260808380818160C5
:100B800080838081806880831092C1000895EF92F5
:100B9000FF920F931F93CF93DF937B018C013FB79D
:100BA000F8948091380190913901A0913A01B09167
:100BB0003B0126B5A89B05C02F3F19F00196A11D4A
:100BC000B11D3FBFBA2FA92F982F8827820F911DE3
:100BD000A11DB11D52E0880F991FAA1FBB1F5A9576
:100BE000D1F7EC0130C00E9426093FB7F8948091FC
:100BF000380190913901A0913A01B0913B0126B59D
:100C0000A89B05C02F3F19F00196A11DB11D3FBF44
:100C1000BA2FA92F982F8827820F911DA11DB11DD2
:100C200032E0880F991FAA1FBB1F3A95D1F78C1B82
:100C30009D0B885E9340B8F20894E108F108010921
:100C40001109C851DC4FE114F1040105110559F6F1
:100C5000DF91CF911F910F91FF90EF900895CF9367
:100C6000DF93482F50E0CA0186569F4FFC01349114
:100C70004A575F4FFA018491882369F190E0880F09
:100C8000991FFC01E859FF4FA591B491FC01EE5862
:100C9000FF4FC591D491662351F42FB7F8948C91EE
:100CA000932F909589238C93888189230BC0623080
:100CB00061F42FB7F8948C91932F909589238C939E
:100CC0008881832B88832FBF06C09FB7F8948C91AF
:100CD000832B8C939FBFDF91CF910895482F50E0D5
:100CE000CA0182559F4FFC012491CA0186569F4F2D
:100CF000FC0194914A575F4FFA013491332309F470
:100D000040C0222351F1233071F0243028F42130E7
:100D1000A1F0223011F514C02630B1F02730C1F017
:100D20002430D9F404C0809180008F7703C0809173
:100D300080008F7D8093800010C084B58F7702C0C3
:100D400084B58F7D84BD09C08091B0008F7703C0CA
:100D50008091B0008F7D8093B000E32FF0E0EE0F24
:100D6000FF1FEE58FF4FA591B4912FB7F89466235B
:100D700021F48C919095892302C08C91892B8C93BE
:100D80002FBF089508951F920F920FB60F9211244E
:100D90002F933F934F938F939F93EF93FF93809164
:100DA000C00082FD19C04091C60080915F01282FCC
:100DB00030E02F5F3F4F2F7330708091600190E0E3
:100DC0002817390759F0E0915F01F0E0EF5BFE4F23
:100DD00042A320935F0102C08091C600FF91EF9172
:100DE0009F918F914F913F912F910F900FBE0F9038
:100DF0001F90189580915F012091600190E0805CC8
:100E00009F4F821B91098F739070892B11F00E9464
:100E1000C20608951F920F920FB60F9211242F93BE
:100E20008F939F93EF93FF93909161018091620163
:100E3000981731F48091C1008F7D8093C10010C05C
:100E4000E0916201F0E0ED55FE4F2081809162015A
:100E500090E001968F739070809362012093C6009A
:100E6000FF91EF919F918F912F910F900FBE0F9057
:100E70001F901895AF92BF92DF92EF92FF920F935F
:100E80001F93CF93DF93EC017A018B01DD24403077
:100E900081EE580780E0680780E0780711F0DD24D4
:100EA000D39491E0A92EB12CE889F989DD2069F06D
:100EB000C5010C8C02C0880F991F0A94E2F7808349
:100EC00060E079E08DE390E005C0108260E874E8AE
:100ED0008EE190E0A80197010E943B09215030402B
:100EE00040405040569547953795279580E12030F2
:100EF000380720F0DD2011F0DD24D6CFEC85FD850C
:100F00003083EE85FF8520831D8EEA89FB89408131
:100F100021E030E0C901088C02C0880F991F0A94B3
:100F2000E2F7482B4083EA89FB894081C901098C9B
:100F300002C0880F991F0A94E2F7482B4083EA8980
:100F4000FB894081C9010A8C02C0880F991F0A944D
:100F5000E2F7482B4083EA89FB8980810B8C02C031
:100F6000220F331F0A94E2F7209528232083DF9174
:100F7000CF911F910F91FF90EF90DF90BF90AF90B6
:100F80000895FC01268D878D30E0205C3F4F281BA3
:100F900031092F733070C9010895FC01968D878D3A
:100FA000981719F42FEF3FEF06C0878DE80FF11D5A
:100FB00082A1282F30E0C9010895DC015E969C9142
:100FC0005E975F968C915F97981719F42FEF3FEF1C
:100FD00010C05F968C915F97FD01E80FF11D92A103
:100FE0005F968C915F978F5F8F735F968C93292F9D
:100FF00030E0C9010895DC015D968C915D978823EE
:1010000039F05096ED91FC915197808186FFF9CF90
:101010005D961C920895DC0190968C919097282FF4
:1010200030E02F5F3F4F2F73307091968C919197E6
:1010300090E028173907C9F390968C919097FD019D
:10104000E80FF11DEE59FF4F608390962C93909717
:101050005296ED91FC915397208181E090E05B9650
:101060000C905B9702C0880F991F0A94E2F7282B17
:10107000208381E05D968C935D975096ED91FC9175
:10108000519780818064808381E090E00895109280
:1010900044011092430188EE93E0A0E0B0E0809319
:1010A000450190934601A0934701B093480180E128
:1010B00091E09093420180934101109262018091EE
:1010C00062018093610110926001809160018093C0
:1010D0005F0185EC90E090934E0180934D0184EC8C
:1010E00090E09093500180934F0180EC90E09093BA
:1010F00052018093510181EC90E0909354018093D0
:10110000530182EC90E0909356018093550186EC58
:1011100090E0909358018093570184E080935901A7
:1011200083E080935A0187E080935B0185E08093A0
:101130005C0181E080935D010895CF93DF930E946D
:101140008C050E949701CAEFD6E00E94F900209713
:10115000E1F30E94FA06F9CFCF92DF92EF92FF926D
:101160000F931F93CF93DF937C016B018A01C0E043
:10117000D0E00FC0D6016D916D01D701ED91FC91CA
:101180000190F081E02DC7010995C80FD91F0150CA
:1011900010400115110571F7CE01DF91CF911F911C
:1011A0000F91FF90EF90DF90CF900895CF93DF9352
:1011B000EC010E944E05688779878A879B87E881C2
:1011C000F9810680F781E02DCE0109959C0197FFFA
:1011D00015C00E944E05288539854A855B85621BAE
:1011E000730B840B950B2C813D814E815F816217BF
:1011F00073078407950718F32FEF3FEFC901DF91BD
:10120000CF910895CF92DF92EF92FF920F931F93A9
:10121000CF93DF936C018B017A01C0E0D0E009C06D
:10122000C6010E94D60897FD07C0F80181938F017F
:101230002196CE15DF05A0F3CE01DF91CF911F914E
:101240000F91FF90EF90DF90CF9008950895AA1B23
:10125000BB1B51E107C0AA1FBB1FA617B70710F0A1
:10126000A61BB70B881F991F5A95A9F780959095D3
:10127000BC01CD010895A1E21A2EAA1BBB1BFD01E2
:101280000DC0AA1FBB1FEE1FFF1FA217B307E40765
:10129000F50720F0A21BB30BE40BF50B661F771FBD
:1012A000881F991F1A9469F760957095809590959D
:1012B0009B01AC01BD01CF01089597FB092E0526C6
:1012C0000ED057FD04D0D7DF0AD0001C38F450955B
:1012D0004095309521953F4F4F4F5F4F0895F6F75A
:1012E00090958095709561957F4F8F4F9F4F089592
:1012F000EE0FFF1F0590F491E02D099410E0C6EC6D
:10130000D0E004C0FE010E947A092296C83CD107B1
:06131000C9F7F894FFCFBD
:101316008000E701000041646100184D00000000F4
:0C1326000B08AC08C107DD07CD07FB0772
:00000001FF
