:100000000C9476020C945B0C0C94880C0C949E025D
:100010000C949E020C949E020C949E020C949E02E0
:100020000C949E020C949E020C949E020C949E02D0
:100030000C949E020C949E020C949E020C949E02C0
:100040000C94B50C0C949E020C94910E0C94D80E4A
:100050000C949E020C949E020C949E020C949E02A0
:100060000C949E020C949E02880594045A05720614
:1000700072069305550570068A047006E1056B0645
:1000800070067006BF047006520672068805630586
:100090007006660672065F0670063C0620620A005D
:1000A000202D3E2000202D3E2061636B0A00204958
:1000B0004920004153432000204700203F004F4B80
:1000C00000205A7A7A2E2E2E0A007465737420004E
:1000D0003E2000636F6E66696720736176652066F7
:1000E00061696C65640A005B5246313264656D6F0C
:1000F0002E31325D000A417661696C61626C652067
:10010000636F6D6D616E64733A0A20203C6E6E3EC3
:10011000206920202020202D20736574206E6F64BC
:100120006520494420287374616E64617264206E96
:100130006F6465206964732061726520312E2E33EF
:1001400030290A20203C6E3E2062202020202020E2
:100150002D20736574204D487A2062616E642028DA
:1001600034203D203433332C2038203D203836389D
:100170002C2039203D20393135290A20203C6E6E53
:100180006E6E3E206F2020202D206368616E6765B3
:10019000206672657175656E6379206F666673653A
:1001A000742077697468696E207468652062616E76
:1001B00064202864656661756C742031363030299E
:1001C0000A20202020202020202020202020202045
:1001D00039362E2E33393033206973207468652008
:1001E00072616E676520737570706F7274656420DC
:1001F0006279207468652052464D3132420A2020CF
:100200003C6E6E6E3E2067202020202D207365748A
:10021000206E6574776F726B2067726F757020281F
:1002200052464D3132206F6E6C7920616C6C6F7765
:1002300073203231322C2030203D20616E79290A22
:1002400020203C6E3E20632020202020202D207383
:10025000657420636F6C6C656374206D6F646520DA
:1002600028616476616E6365642C206E6F726D61C7
:100270006C6C792030290A20207420202020202036
:10028000202020202D2062726F61646361737420CE
:100290006D61782D73697A6520746573742070615F
:1002A000636B65742C20726571756573742061636E
:1002B0006B0A20202E2E2E2C3C6E6E3E2061202DAF
:1002C0002073656E642064617461207061636B6586
:1002D0007420746F206E6F6465203C6E6E3E2C201F
:1002E000726571756573742061636B0A20202E2E10
:1002F0002E2C3C6E6E3E2073202D2073656E642084
:1003000064617461207061636B657420746F206E2A
:100310006F6465203C6E6E3E2C206E6F2061636BB7
:100320000A20203C6E3E20712020202020202D20FD
:10033000736574207175696574206D6F646520281C
:1003400031203D20646F6E2774207265706F727467
:1003500020626164207061636B657473290A2020D8
:100360003C6E3E20782020202020202D20736574B4
:10037000207265706F7274696E6720666F726D614E
:10038000742028303A20646563696D616C2C2031DB
:100390003A206865782C20323A206865782B6173A2
:1003A000636969290A2020313233207A20202020F5
:1003B00020202D20746F74616C20706F776572201F
:1003C000646F776E2C206E656564732061207265A2
:1003D00073657420746F207374617274207570205B
:1003E000616761696E0A52656D6F746520636F6E37
:1003F00074726F6C20636F6D6D616E64733A0A2066
:10040000203C686368693E2C3C68636C6F3E2C3C02
:10041000616464723E2C3C636D643E206620202043
:1004200020202D204653323020636F6D6D616E6445
:100430002028383638204D487A290A20203C61642B
:1004400064723E2C3C6465763E2C3C6F6E3E206BA5
:1004500020202020202020202020202020202D208F
:100460004B414B5520636F6D6D616E6420283433B2
:1004700033204D487A290A0043757272656E7420E4
:10048000636F6E66696775726174696F6E3A0A00B0
:1004900000000000240027002A00000000002500C2
:1004A00028002B000000000023002600290004047F
:1004B000040404040404020202020202030303030C
:1004C00003030102040810204080010204081020E8
:1004D00001020408102000000007000201000003D0
:1004E00004060000000000000000151011241FBECB
:1004F000CFEFD8E0DEBFCDBF11E0A0E0B1E0EAEB86
:10050000F4E202C005900D92A433B107D9F712E0CE
:10051000A4E3B1E001C01D92A639B107E1F714E0F0
:10052000CCEED4E004C02297FE010E945712CA3ECE
:10053000D107C9F70E946B100C945B120C94000059
:10054000FB01DC0102C001900D9241505040D8F7F0
:100550000895DF92EF92FF920F931F937B018C011E
:10056000FB010995D82EC8010196F7010995982F2E
:100570008D2D1F910F91FF90EF90DF900895EF92D6
:10058000FF920F931F938C017B0181E00E94F90978
:10059000C8018A569F4F0E94FD0C80E00E94F90915
:1005A000C701885C90400E94FD0C1F910F91FF9045
:1005B000EF9008950F931F93CF93DF93EC01683072
:1005C000A1F49C01220F331F082E82958025082E4E
:1005D000869586958025C82FD0E02196D595C7951C
:1005E000C170D070C22BD32B69E0262F30E0215090
:1005F000304081E090E0A0E0B0E004C0880F991F97
:10060000AA1FBB1F2A95D2F78C010FC0C8018C23EB
:100610009D23892B19F460E971E002C068E572E05E
:10062000CB010E94BF02169507950115110571F7C0
:10063000DF91CF911F910F9108951F93182F8091F3
:1006400037018370E9F0812F90E054E0959587950C
:100650005A95E1F78F70682F605D6A330CF0695F1F
:1006600084EF91E00E94A410812F8F70682F605D4D
:100670006A330CF0695F84EF91E00E94A41008C017
:1006800084EF91E0612F70E04AE050E00E94731126
:100690001F910895682F84EF91E00E94A41008959F
:1006A0001F93CF93DF93EC01FE0121961491112348
:1006B00049F01A3019F48DE00E944A03812F0E94FC
:1006C0004A03F2CFDF91CF911F91089581E080938B
:1006D0003601E4E3F1E02FEF3FEF81912827822FED
:1006E00082958227082E869586958025082E8695E8
:1006F00080258770022E232F869507948795302DAD
:100700002827069487953025282781E0E234F807CA
:1007100021F73183208320913401F999FECF1FBA4C
:1007200080E290E092BD81BD20BD0FB6F894FA9AA8
:10073000F99A0FBEFC01EC5EFE4FE081F999FECF05
:100740001FBA92BD81BDE0BD0FB6F894FA9AF99A2E
:100750000FBE01968033910569F70E94C60B88236E
:1007600019F00E94460A089583ED90E00E9450031C
:10077000089587EE90E00E945003089585EF90E081
:100780000E94500388E794E00E9450030E94460AAA
:1007900008951F93182F89E061E00E94AA0D60E080
:1007A000112309F461E089E00E94E90D1F91089589
:1007B000CF92DF92EF92FF920F931F93CF93DF932D
:1007C000082F80538A30D8F480918D0190918E014A
:1007D0009C01A3E0220F331FAA95E1F7880F991F10
:1007E000280F391F20533040802F992787FD90957F
:1007F000280F391F30938E0120938D0179C20C325E
:1008000081F490918F01963408F06EC2E92FF0E0E8
:10081000E95BFE4F80918D0180839F5F90938F01F4
:1008200063C2802F81568A3148F580ED90E00E94A6
:10083000500310E010C0E12FF0E0E95BFE4F608153
:1008400084EF91E070E04AE050E00E9473118CE286
:100850000E944A031F5F80918F01181760F3609117
:100860008D0170918E0184EF91E04AE050E00E948A
:10087000731184EF91E0602F0E94CC100E3391F53C
:1008800080918F01E82FF0E0E95BFE4F90918D01A0
:1008900090838F5F80938F018091490190914701F0
:1008A000943011F461E009C0983011F462E005C0A1
:1008B000993011F060E001C063E02091380130917F
:1008C0003901409148010E94420B40918F014450F0
:1008D00080914A016BE471E00E942E0A82E00E943E
:1008E000DC096CC101320CF4FDC1802F992787FD12
:1008F0009095A92FB92FFC01E156F040EA31F1059E
:1009000008F0EEC1EC5CFF4FEE0FFF1F0590F49175
:10091000E02D099490918D019F7180913401807E2A
:10092000980F9093340128C080918D01843011F488
:1009300021E009C0883011F422E005C0893011F0AF
:1009400020E001C023E0822F90E090938E018093FD
:100950008D01892B09F4C6C12295220F220F207C1C
:10096000809134018F73280F2093340180E496E046
:1009700090933901809338010E946603B3C120919E
:100980008D0130918E01C90180569040805E9E405D
:1009900030F430933901209338010E946603D090DF
:1009A0003401D294D694D694E3E0DE2282E0D816C5
:1009B00051F043E0D41649F081E0D81611F060E020
:1009C00005C06BE203C066E501C06AE570E080E047
:1009D00090E020EA36E841E050E00E9400127B01FE
:1009E0008C01609138017091390180E090E029E13B
:1009F00030E040E050E00E9400122D2D30E040E059
:100A000050E00E940012E60EF71E081F191FC801D1
:100A1000B70120E137E240E050E00E94331284EF5A
:100A200091E0B9014AE050E00E9473118EE20E9409
:100A30004A03C801B70120E137E240E050E00E94DC
:100A400033127B018C01CB0168EE73E00E941F1210
:100A5000862F805D0E944A03C70164E670E00E9411
:100A60001F12CB016AE070E00E941F12805D0E949D
:100A70004A03C7016AE070E00E941F12CB016AE0DE
:100A800070E00E941F12805D0E944A03C7016AE065
:100A900070E00E941F12805D0E944A0384EF91E083
:100AA00060E071E00E94EC111DC180918D01809386
:100AB000350162CF90918D019170990F990F8091BE
:100AC00037018B7FF8C081E68093440182E48093F4
:100AD0004501109246019091900120E030E0F9012B
:100AE000E95BFE4F892F820F80832F5F3F4F2234B7
:100AF0003105A9F78AEC90E00E94500380919001A3
:100B00000E941D03809190018F5F80939001EAC045
:100B10000093440180918F018093450180918D0164
:100B200080934601DFC080E062E040E020E436E0F0
:100B30000E94420B81E00E94C9039091470180E02E
:100B400020914801EC01C20FD11DF0904901D090D5
:100B50008D01ED2E1F2D1A5F1D0D1C0F1D0F00E0C6
:100B600081E090E06DE00E94DA028E2D90E068E076
:100B70000E94DA02CE0168E00E94DA028F2D90E036
:100B800068E00E94DA028D2D90E068E00E94DA02AF
:100B9000812F90E068E00E94DA0280E090E061E05E
:100BA0000E94DA026AE070E080E090E00E94420D6C
:100BB0000F5F0330A9F680E00E94C9030E94C60BB4
:100BC00091C080E061E040E020E436E00E94420B0A
:100BD00081E00E94C90380914801C82FD0E021978D
:100BE00074E0CC0FDD1F7A95E1F7D6608091470164
:100BF000992787FD909501978F709070C82BD92BFE
:100C000080918D018111D860EE246CEDC62E65E0D7
:100C1000D62E2FC087E791E065E674E00E94BF0200
:100C2000CE01002E02C0959587950A94E2F780FDCB
:100C300003C087E791E002C085E694E0B601681B37
:100C4000790B0E94BF020F5F1F4F0C30110511F787
:100C500087E791E067E771E00E94BF026BE070E018
:100C600080E090E00E94420DE39444E0E41609F431
:100C7000A2CF00E010E0CECF80918D0190918E0147
:100C80008B37910579F581EC90E00E94500384EF59
:100C900091E00E94C90F80E00E94030AF8940E942C
:100CA000C70720C090918D019170990F990F990FEE
:100CB00080913701877F892B809337015DCE90919A
:100CC0008D019370809137018C7FF5CF0E94B9031D
:100CD0000E94460A07C080918D010E94C90302C08C
:100CE0000E94BE0310928F0110928E0110928D010E
:100CF000DF91CF911F910F91FF90EF90DF90CF90F8
:100D000008951F93CF93DF9384EF91E00E948F0F9C
:100D1000892B31F084EF91E00E94AB0F0E94D80341
:100D20000E94E508882309F4AFC0109195018091D5
:100D3000910190919201892B29F48EEB90E00E9411
:100D400050030BC08091370183FDD2C08BEB90E044
:100D50000E945003153108F014E18091370183702F
:100D600019F088E50E944A0380913501882341F4F7
:100D700088EB90E00E945003809193010E941D0334
:100D800080E20E944A03809194010E941D03C0E00A
:100D9000D0E00EC080913701837019F480E20E9488
:100DA0004A03FE01EA56FE4F80810E941D032196F0
:100DB000C11780F384EF91E00E94AC10809137015D
:100DC000837090E00297ACF183EB90E00E945003B7
:100DD00080913501882321F48EEA90E00E9450032F
:100DE0008091940186FD02C08CE301C08EE30E94D5
:100DF0004A03809194018F71805C0E944A03C0E095
:100E0000D0E011C080E20E944A03FE01ED56FE4F81
:100E10009381892F80528F3510F08EE201C0892F87
:100E20000E944A032196C11768F384EF91E00E9463
:100E3000AC108091910190919201892B29F581E06C
:100E40000E94C9038091940185FF1BC08091940189
:100E500087FD17C08091370182FD13C085EA90E0BD
:100E60000E9450038091940186FF02C080E804C074
:100E7000809194018F71806C60E070E040E00E948E
:100E80001F0A80E00E94C90380914401882381F1F8
:100E90000E948209882361F181E00E94C90380EAEF
:100EA00090E00E9450036091450184EF91E070E072
:100EB0004AE050E00E9473118CE990E00E945003D8
:100EC00080914401813611F080E001C080E2909170
:100ED0004601992311F09064892B67E471E04091F9
:100EE00045010E941F0A1092440180E00E94C9033C
:100EF000DF91CF911F91089564E670E080E090E06B
:100F00000E94420D84EF91E040E051EE60E070E01D
:100F10000E94080F84EF91E00E94AC100E94B90378
:100F20000E94C60B882391F020E230E0F999FECFB1
:100F300032BD21BDF89A80B5F901EC5EFE4F808389
:100F40002F5F3F4F2033310589F71CC080E1E4E378
:100F5000F1E0DF011D928A95E9F781E88093340181
:100F600084ED8093350180E496E09093390180937D
:100F70003801809137018860809337010E946603B1
:100F80000E94C60B0E94460A0E94BE030895EAE72B
:100F9000F0E0908180818F77808383B7817F846048
:100FA00083BFF89483B7816083BF85B7806685BFB0
:100FB00085B78F79806485BF7894889583B78E7F55
:100FC00083BF90937A0008959C01F999FECF32BDBA
:100FD00021BDF89A80B50895782F8CB581608CBDBD
:100FE00065B121E030E040E050E00090220104C013
:100FF000220F331F441F551F0A94D2F7522F822FFE
:101000008095862385B99EBD0DB407FEFDCF8EB5B4
:101010007EBD0DB407FEFDCF4EB5382F20E085B163
:10102000582B55B98CB58E7F8CBD50E0422B532B7D
:10103000CA010895E8980E94EC07E89A089580E0B4
:1010400090E00E94EC078091E201853009F054C0E5
:1010500080E090EB0E94EC07282F8091E601882326
:1010600071F49091E301992351F08091E601E82F0A
:10107000F0E0ED56FE4F90838F5F8093E601809104
:10108000E601E82FF0E0ED56FE4F20838F5F80935E
:10109000E60180919101909192018227282F22955B
:1010A0002827022E269526952025022E26952025D6
:1010B0002770082E892F269507942795902D822733
:1010C0000694279590258227909392018093910111
:1010D000809195012091E60190E0049630E082171E
:1010E00093072CF08091E601873408F46DC08DE001
:1010F00092E80E94EC0708958091E20187FF2EC0DC
:10110000E09195018091E2018F5F8093E20181502F
:10111000ED5FE80FF0E0ED56FE4FE0818091910128
:10112000909192018E27282F22952827022E26950E
:1011300026952025022E269520252770082E892FFA
:10114000269507942795902D82270694279590251C
:101150008227909392018093910130C08091E201A7
:101160008F5F8093E2018150833019F184302CF439
:10117000882399F0813009F516C0893019F08A303A
:10118000E1F402C0EDE21AC0E091E3019091950113
:101190008EEF891B8093E20111C0809191019091A3
:1011A0009201E82F0BC08091910190919201E92F5B
:1011B00005C08DE092E80E94EC07EAEA8E2F90E0ED
:1011C000805098440E94EC0708958091E201853098
:1011D00009F042C0809195012091E60190E00496CB
:1011E00030E08217930724F08091E6018734A0F164
:1011F00084E08093E20180919501833430F081E0B6
:1012000090E090939201809391018091940186FFE8
:1012100012C08091E101282F30E0C9018F719070D8
:101220004F9749F08091940190E0822793278F7126
:101230009070892B89F48091910190919201892B72
:1012400009F052C0E091DE01F091DF01309709F41E
:101250004BC080E0099554C08091E201843011F0C8
:1012600080E008958091E001882351F080939501FA
:1012700010929401809194018093930183E004C0C3
:1012800010929501809195018093E6018FEF9FEF79
:1012900090939201809391012091E3012223D9F050
:1012A0008227282F22952827022E2695269520254D
:1012B000022E269520252770082E892F2695079423
:1012C0002795902D82270694279590258227909325
:1012D00092018093910185E08093E2018DED92E887
:1012E0000E94EC0780E008958FEF9FEFAFEFBFEF14
:1012F0008093DA019093DB01A093DC01B093DD01D0
:1013000081E008958091E201853099F48091E601B1
:10131000882379F480E090E00E941A0890FD09C0CB
:101320008DE092E80E941A0884E08093E20181E057
:10133000089580E00895982F86FD05C0907E8091E5
:10134000E1018F71980F90939401E091DE01F0918B
:10135000DF01309711F081E009958FEF9FEF9093B7
:10136000920180939101809191019091920120913D
:10137000E3018227282F22952827022E26952695DD
:101380002025022E269520252770082E892F2695A8
:1013900007942795902D82270694279590258227DC
:1013A000909392018093910186E08093E2018DE316
:1013B00092E80E94EC070895282F16C02223A1F07E
:1013C00093B7233011F484E005C0223011F080E09F
:1013D00001C08CE0917F892B83BF83B7816083BF7D
:1013E000889583B78E7F83BF8091E201843031F787
:1013F0000895882319F48DE092E802C08DE392E805
:101400000E94EC0708951F93182F87FF03C08DE0FB
:1014100092E80EC0992787FD9095956E0E941A0854
:1014200085E092E80E941A08112321F087E092E8F3
:101430000E941A0884E08093E2011F9108951F938F
:10144000182F4093950126E931E0C90150E00E9430
:10145000A002812F0E949B091F9108950F931F9353
:10146000CF93DF93182FEB01042F02C00E94E508F1
:101470000E9482098823D1F3812FBE01402F0E9450
:101480001F0ADF91CF911F910F910895CF92DF92A4
:10149000EF92FF920F931F93CF93DF93F999FECFB3
:1014A00080E290E092BD81BDF89A00B5F999FECF37
:1014B00083E290E092BD81BDF89A10B584E290E09D
:1014C00064EE77E00E94A9026C0184EF91E060E293
:1014D0000E94A410602F6F71605C84EF91E00E9405
:1014E000A41084EF91E065E071E00E94E911C02F43
:1014F000D0E0BE016F71707084EF91E04AE050E07F
:101500000E94D611012F10E0E4E0EE2EF12CE02233
:10151000F12202FF05C084EF91E06AE20E94A4106C
:1015200084EF91E068E071E00E94E911F999FECF43
:1015300081E290E092BD81BDF89A60B584EF91E0C0
:101540004AE050E00E94841184EF91E06BE071E08A
:101550000E94E91176E0D595C7957A95E1F7C130FB
:1015600019F461EB71E00CC0C23019F464E673E069
:1015700007C0C33019F060E070E002C063E973E0B7
:1015800084EF91E04AE050E00E94D61184EF91E0B0
:101590006FE071E00E94E911EF2831F084EF91E0F3
:1015A00064E171E00E94E91180E4C81686E0D80683
:1015B00069F084EF91E068E171E00E94E91184EF45
:1015C00091E0B6014AE050E00E94731103FF06C0AB
:1015D00084EF91E06BE171E00E94E911E801C370D2
:1015E000D070209769F084EF91E06FE171E00E9484
:1015F000E91184EF91E0BE014AE050E00E94D6116B
:1016000084EF91E00E94AC10DF91CF911F910F9178
:10161000FF90EF90DF90CF90089525B181E090E0AA
:10162000A0E0B0E00090220104C0880F991FAA1F1B
:10163000BB1F0A94D2F7282B25B924B1822B84B979
:101640008AE061E00E94E90D8AE061E00E94AA0D53
:101650008BE061E00E94AA0D8CE060E00E94AA0D80
:101660008DE061E00E94AA0D80E58CBD8DB58160A2
:101670008DBD82E060E00E94AA0D82E061E00E94E0
:10168000E90D08951F93162F8093E1014093E30124
:101690003093E5012093E4010E940D0B80E090E07F
:1016A0000E94EC0785E092E80E94EC0780E098EB4E
:1016B00002C080E090E00E94EC0782E00E943D0EB4
:1016C000892BB9F3812F90E0F4E0880F991FFA95E8
:1016D000E1F7876C90680E94EC078091E40190919B
:1016E000E501805090460E94EC0786E096EC0E944F
:1016F000EC0782EA94E90E94EC078CEA92EC0E94E3
:10170000EC071091E301112341F083E89AEC0E9469
:10171000EC07812F90E09E6C06C08BE89AEC0E944B
:10172000EC078DE29EEC0E94EC0783E894EC0E94AB
:10173000EC0780E598E90E94EC0787E79CEC0E94A3
:10174000EC0780E090EE0E94EC0780E098EC0E94AD
:10175000EC0789E490EC0E94EC0784E08093E201BE
:101760008091E10190E08F719070892B41F080E0D1
:101770006FE178E040E050E00E94250C03C080E07B
:101780000E94480C8091E1011F9108950F931F93CF
:101790004FEF5FEF20E230E0F999FECF32BD21BD7F
:1017A000F89A80B54827842F82958427082E86953D
:1017B00086958025082E869580258770042E452FD6
:1017C000869507948795502D482706948795502530
:1017D00048272F5F3F4F2033310509F0DDCF452BE0
:1017E00009F02FC0F999FECF82E290E092BD81BD51
:1017F000F89A80B5813029F5F999FECF80E290E022
:1018000092BD81BDF89A00B5F999FECF81E290E0D2
:1018100092BD81BDF89A10B584E290E064EE77E065
:101820000E94A9029C01602F70E0A6E07595679563
:10183000AA95E1F7802F412F0E94420B802F8F71D4
:1018400001C080E01F910F910895823000F5E82FCC
:10185000F0E0EE0FFF1FE951FE4F71836083882394
:1018600019F08130A1F408C0809169008C7F842B2D
:1018700080936900E89A089580916900440F551F8C
:10188000440F551F837F842B80936900E99A089544
:10189000823080F4882319F0813021F402C0E89866
:1018A00001C0E998E82FF0E0EE0FFF1FE951FE4F6D
:1018B0001182108208951F920F920FB60F92112479
:1018C0002F933F934F935F936F937F938F939F9348
:1018D000AF93BF93EF93FF938091E7019091E8015D
:1018E000892B29F0E091E701F091E8010995FF913A
:1018F000EF91BF91AF919F918F917F916F915F9188
:101900004F913F912F910F900FBE0F901F90189500
:101910001F920F920FB60F9211242F933F934F9364
:101920005F936F937F938F939F93AF93BF93EF9347
:10193000FF938091E9019091EA01892B29F0E091D0
:10194000E901F091EA010995FF91EF91BF91AF9103
:101950009F918F917F916F915F914F913F912F91C7
:101960000F900FBE0F901F9018951F920F920FB6F9
:101970000F9211242F933F938F939F93AF93BF9315
:101980008091EF019091F001A091F101B091F201ED
:101990003091F3010196A11DB11D232F2D5F2D372D
:1019A00020F02D570196A11DB11D2093F3018093C6
:1019B000EF019093F001A093F101B093F2018091B7
:1019C000EB019091EC01A091ED01B091EE01019637
:1019D000A11DB11D8093EB019093EC01A093ED014B
:1019E000B093EE01BF91AF919F918F913F912F9155
:1019F0000F900FBE0F901F901895019739F0880F28
:101A0000991F880F991F02970197F1F7089578940D
:101A100084B5826084BD84B5816084BD85B58260F3
:101A200085BD85B5816085BDEEE6F0E08081816091
:101A30008083E1E8F0E01082808182608083808191
:101A400081608083E0E8F0E0808181608083E1EB69
:101A5000F0E0808184608083E0EBF0E08081816051
:101A60008083EAE7F0E08081846080838081826007
:101A700080838081816080838081806880831092F0
:101A8000C1000895EF92FF920F931F93CF93DF93BE
:101A90007B018C013FB7F8948091EB019091EC01B0
:101AA000A091ED01B091EE0126B5A89B05C02F3F96
:101AB00019F00196A11DB11D3FBFBA2FA92F982F74
:101AC0008827820F911DA11DB11D52E0880F991F1B
:101AD000AA1FBB1F5A95D1F7EC0130C00E94FF111D
:101AE0003FB7F8948091EB019091EC01A091ED014A
:101AF000B091EE0126B5A89B05C02F3F19F00196C5
:101B0000A11DB11D3FBFBA2FA92F982F8827820F83
:101B1000911DA11DB11D32E0880F991FAA1FBB1F87
:101B20003A95D1F78C1B9D0B885E9340B8F20894D0
:101B3000E108F10801091109C851DC4FE114F10471
:101B40000105110559F6DF91CF911F910F91FF907B
:101B5000EF900895CF93DF93482F50E0CA018E5342
:101B60009B4FFC01349142555B4FFA0184918823CD
:101B700069F190E0880F991FFC01E057FB4FA59198
:101B8000B491FC01E656FB4FC591D491662351F404
:101B90002FB7F8948C91932F909589238C938881FB
:101BA00089230BC0623061F42FB7F8948C91932F86
:101BB000909589238C938881832B88832FBF06C0BF
:101BC0009FB7F8948C91832B8C939FBFDF91CF911B
:101BD0000895482F50E0CA018A529B4FFC0124917E
:101BE000CA018E539B4FFC01949142555B4FFA0101
:101BF0003491332309F440C0222351F1233071F092
:101C0000243028F42130A1F0223011F514C0263000
:101C1000B1F02730C1F02430D9F404C080918000A5
:101C20008F7703C0809180008F7D8093800010C0EB
:101C300084B58F7702C084B58F7D84BD09C0809143
:101C4000B0008F7703C08091B0008F7D8093B0008B
:101C5000E32FF0E0EE0FFF1FE656FB4FA591B49186
:101C60002FB7F894662321F48C919095892302C0B4
:101C70008C91892B8C932FBF0895682F70E0CB0136
:101C80008A529B4FFC012491CB018E539B4FFC0148
:101C9000449162557B4FFB019491992319F420E004
:101CA00030E03CC0222351F1233071F0243028F47D
:101CB0002130A1F0223011F514C02630B1F02730C8
:101CC000C1F02430D9F404C0809180008F7703C024
:101CD000809180008F7D8093800010C084B58F77C5
:101CE00002C084B58F7D84BD09C08091B0008F771C
:101CF00003C08091B0008F7D8093B000892F90E069
:101D0000880F991F8C559B4FFC01A591B4918C9124
:101D100020E030E0842311F021E030E0C901089593
:101D200008951F920F920FB60F9211242F933F9395
:101D30004F938F939F93EF93FF938091C00082FD09
:101D400019C04091C60080911202282F30E02F5F09
:101D50003F4F2F7330708091130290E0281739079E
:101D600059F0E0911202F0E0EC50FE4F42A32093B4
:101D7000120202C08091C600FF91EF919F918F9156
:101D80004F913F912F910F900FBE0F901F9018957C
:101D9000809112022091130290E0805C9F4F821B81
:101DA00091098F739070892B11F00E94900E089505
:101DB0001F920F920FB60F9211242F938F939F9320
:101DC000EF93FF939091140280911502981731F4CC
:101DD0008091C1008F7D8093C10010C0E0911502F9
:101DE000F0E0EA5AFD4F20818091150290E00196C3
:101DF0008F739070809315022093C600FF91EF912E
:101E00009F918F912F910F900FBE0F901F9018955B
:101E1000AF92BF92DF92EF92FF920F931F93CF93F7
:101E2000DF93EC017A018B01DD24403081EE58070D
:101E300080E0680780E0780711F0DD24D39491E01A
:101E4000A92EB12CE889F989DD2069F0C5010C8C37
:101E500002C0880F991F0A94E2F7808360E079E05E
:101E60008DE390E005C0108260E874E88EE190E0B8
:101E7000A80197010E943312215030404040504049
:101E8000569547953795279580E12030380720F003
:101E9000DD2011F0DD24D6CFEC85FD853083EE8585
:101EA000FF8520831D8EEA89FB89408121E030E097
:101EB000C901088C02C0880F991F0A94E2F7482BC9
:101EC0004083EA89FB894081C901098C02C0880FDF
:101ED000991F0A94E2F7482B4083EA89FB894081E5
:101EE000C9010A8C02C0880F991F0A94E2F7482B97
:101EF0004083EA89FB8980810B8C02C0220F331F4B
:101F00000A94E2F7209528232083DF91CF911F9137
:101F10000F91FF90EF90DF90BF90AF900895FC017C
:101F2000268D878D30E0205C3F4F281B31092F73B1
:101F30003070C9010895FC01968D878D981719F4AA
:101F40002FEF3FEF06C0878DE80FF11D82A1282FEC
:101F500030E0C9010895DC015E969C915E975F9622
:101F60008C915F97981719F42FEF3FEF10C05F9691
:101F70008C915F97FD01E80FF11D92A15F968C9106
:101F80005F978F5F8F735F968C93292F30E0C90125
:101F90000895DC015D968C915D97882339F0509609
:101FA000ED91FC915197808186FFF9CF5D961C924F
:101FB0000895DC0190968C919097282F30E02F5F48
:101FC0003F4F2F73307091968C91919790E0281726
:101FD0003907C9F390968C919097FD01E80FF11D98
:101FE000EE59FF4F608390962C9390975296ED9107
:101FF000FC915397208181E090E05B960C905B9779
:1020000002C0880F991F0A94E2F7282B208381E0F1
:102010005D968C935D975096ED91FC9151978081E0
:102020008064808381E090E008951092F70110921F
:10203000F60188EE93E0A0E0B0E08093F801909381
:10204000F901A093FA01B093FB0187E291E090932C
:10205000F5018093F401109215028091150280938E
:10206000140210921302809113028093120285ECE5
:1020700090E0909301028093000284EC90E09093B2
:1020800003028093020280EC90E09093050280931B
:10209000040281EC90E0909307028093060282ECA8
:1020A00090E0909309028093080286EC90E0909370
:1020B0000B0280930A0284E080930C0283E08093F9
:1020C0000D0287E080930E0285E080930F0281E08D
:1020D000809310020895CF93DF930E94070D0E9412
:1020E0007C07C8ECDEE00E9481062097E1F30E94A5
:1020F000C80EF9CFCF92DF92EF92FF920F931F930A
:10210000CF93DF937C016B018A01C0E0D0E00FC068
:10211000D6016D916D01D701ED91FC910190F08197
:10212000E02DC7010995C80FD91F015010400115B6
:10213000110571F7CE01DF91CF911F910F91FF90A3
:10214000EF90DF90CF900895DC01ED91FC9101902C
:10215000F081E02D09950895EF92FF920F931F9360
:102160008C01DC01ED91FC910190F081E02D6DE09E
:1021700009957C01D801ED91FC910190F081E02D51
:10218000C8016AE009959C012E0D3F1DC9011F91F0
:102190000F91FF90EF900895EF92FF920F931F938E
:1021A0007C01DC01ED91FC910190F081E02D09951D
:1021B0008C01C7010E94AC10080F191FC8011F91A4
:1021C0000F91FF90EF900895CF93DF93EC0161158D
:1021D000710519F420E030E00FC0DB010D90002004
:1021E000E9F71197A61BB70BE881F9810280F3810B
:1021F000E02DAD0109959C01C901DF91CF910895B2
:102200004F925F927F928F929F92AF92BF92CF92A6
:10221000DF92EF92FF920F931F93DF93CF93CDB78F
:10222000DEB7A1970FB6F894DEBF0FBECDBF2C016D
:10223000742ECB01223008F42AE019A231E2C32E19
:10224000D12CCC0EDD1E822E9924AA24BB24672D0E
:10225000752FA50194010E94331279018A01C801EA
:10226000B701A50194010E940012472D461B089456
:10227000C108D1084A3014F4405D01C0495CF60140
:102280004083E114F1040105110521F07E2C5F2D3E
:10229000C801DDCFC201B6010E94E410A1960FB6BD
:1022A000F894DEBF0FBECDBFCF91DF911F910F918C
:1022B000FF90EF90DF90CF90BF90AF909F908F9066
:1022C0007F905F904F900895DC012115310541F416
:1022D000ED91FC910190F081E02D642F0995089516
:1022E0000E9400110895EF92FF920F931F939A019D
:1022F0007B0100E010E0B801A7010E9464111F916A
:102300000F91FF90EF900895EF92FF920F931F931C
:102310009A01E62EFF2400E010E0B801A7010E9418
:1023200064111F910F91FF90EF900895CF92DF926B
:10233000EF92FF920F931F93CF93DF93EC016A010B
:102340007B012115310541F4E881F9810190F0818B
:10235000E02D642F09951FC02A303105D1F477FF95
:1023600017C0E881F9810190F081E02D6DE20995B7
:102370008C0144275527BA014C195D096E097F0964
:10238000CE012AE00E9400119801280F391F04C0D5
:102390002AE00E9400119C01C901DF91CF911F9199
:1023A0000F91FF90EF90DF90CF900895EF92FF9202
:1023B0000F931F937B019A010027F7FC0095102FC4
:1023C000B801A7010E9496111F910F91FF90EF9005
:1023D00008950E94E4100895EF92FF920F931F93C7
:1023E0007C010E94E4108C01C7010E94AC10080F10
:1023F000191FC8011F910F91FF90EF900895089544
:10240000629FD001739FF001829FE00DF11D649FD8
:10241000E00DF11D929FF00D839FF00D749FF00D64
:10242000659FF00D9927729FB00DE11DF91F639F05
:10243000B00DE11DF91FBD01CF0111240895AA1BA4
:10244000BB1B51E107C0AA1FBB1FA617B70710F09F
:10245000A61BB70B881F991F5A95A9F780959095D1
:10246000BC01CD010895A1E21A2EAA1BBB1BFD01E0
:102470000DC0AA1FBB1FEE1FFF1FA217B307E40763
:10248000F50720F0A21BB30BE40BF50B661F771FBB
:10249000881F991F1A9469F760957095809590959B
:1024A0009B01AC01BD01CF010895EE0FFF1F059008
:0A24B000F491E02D0994F894FFCF99
:1024BA00204D487A00206900206700204020002033
:1024CA004D487A0020633100206F002071310020CE
:1024DA0078000200000000D90F7A108F0FAB0F9B13
:0424EA000FC90F0007
:00000001FF
