:100000000C9462000C9434080C9461080C948A00DF
:100010000C948A000C948A000C94DA070C948A00E1
:100020000C948A000C948A000C948A000C948A0028
:100030000C948A000C948A000C948A000C948A0018
:100040000C948E080C948A000C94600A0C94A70AF5
:100050000C948A000C949C070C948A000C948A00DF
:100060000C948A000C948A000000000024002700F1
:100070002A0000000000250028002B0000000000DE
:1000800023002600290004040404040404040202DA
:100090000202020203030303030301020408102007
:1000A0004080010204081020010204081020000012
:1000B0000007000201000003040600000000000029
:1000C0000000E40B11241FBECFEFD8E0DEBFCDBF90
:1000D00011E0A0E0B1E0E8E8FCE102C005900D927B
:1000E000A038B107D9F712E0A0E8B1E001C01D9235
:1000F000A939B107E1F710E0C4ECD0E004C02297C1
:10010000FE010E94070EC23CD107C9F70E943A0CBB
:100110000C94420E0C940000FB01DC0102C0019023
:100120000D9241505040D8F70895AEE0B0E0EBE9B1
:10013000F0E00C94190E0D891E8986E08C831A83D9
:1001400009838FEF9FE79E838D839E01275E3F4F3C
:10015000CE0101966F89788DA9010E94B9002F8187
:100160003885020F131FF80110822E96E4E00C94DC
:10017000350EABE0B0E0EFEBF0E00C940B0E3C0181
:100180002B015A01FC0117821682838181FD03C075
:100190006FEF7FEFC6C19AE0892E1E010894211CE3
:1001A000311CF3012381F20123FD859123FF81910D
:1001B0002F01882309F4B2C1853239F423FD8591DA
:1001C00023FF81912F01853229F490E0B3010E9431
:1001D000AC02E7CF982FFF24EE249924FFE1FF150E
:1001E000D0F09B3269F09C3228F4903259F093326F
:1001F00091F40EC09D3249F0903369F441E024C07F
:1002000052E0F52A84E0F82A28C098E0F92A25C0AF
:10021000E0E1FE2A22C0F7FC29C0892F80538A30F2
:1002200070F4F6FE05C0989C902C1124980E15C011
:10023000E89CE02C1124E80EF0E2FF2A0EC09E326A
:1002400029F4F6FC6BC140E4F42A07C09C3619F48B
:1002500050E8F52A02C0983649F4F20123FD959141
:1002600023FF91912F01992309F0B8CF892F85544D
:10027000833018F08052833038F444E050E0A40E0C
:10028000B51E5FE359830FC0933631F0933779F091
:10029000933509F056C020C0F5018081898342E082
:1002A00050E0A40EB51E610101E010E012C0F5019E
:1002B000C080D180F6FC03C06FEF7FEF02C0692DD4
:1002C00070E042E050E0A40EB51EC6010E94A102FB
:1002D0008C015FE7F52214C0F501C080D180F6FCE7
:1002E00003C06FEF7FEF02C0692D70E042E050E085
:1002F000A40EB51EC6010E9496028C0150E8F52A94
:10030000F3FE07C01AC080E290E0B3010E94AC0285
:10031000EA948E2D90E008171907A8F30EC0F60195
:10032000F7FC8591F7FE81916F0190E0B3010E9487
:10033000AC02E110EA94015010400115110579F763
:10034000EAC0943611F0993669F5F7FE08C0F50158
:10035000208131814281538184E090E00AC0F5011F
:10036000808191819C01442737FD4095542F82E084
:1003700090E0A80EB91E9FE6F92257FF09C05095DC
:100380004095309521953F4F4F4F5F4FE0E8FE2A53
:10039000CA01B901A1012AE030E00E94D802D82E9A
:1003A000D21840C0953729F41F2D1F7E2AE030E077
:1003B0001DC01F2D197F9F3661F0903720F49835AE
:1003C00009F0ACC00FC0903739F0983709F0A6C0DB
:1003D00004C028E030E00AC0106114FD146020E180
:1003E00030E004C014FD166020E132E017FF08C0C1
:1003F000F501608171818281938144E050E008C001
:10040000F50180819181BC0180E090E042E050E004
:10041000A40EB51EA1010E94D802D82ED2188FE7D3
:10042000F82EF122F6FE0BC05EEFF522D91438F457
:10043000F4FE07C0F2FC05C08FEEF82202C01D2DAD
:1004400001C0192DF4FE0DC0FE01ED0DF11D8081DE
:10045000803319F499EEF92208C01F5FF2FE05C03F
:1004600003C08F2D867809F01F5F0F2DF3FC14C099
:10047000F0FE0FC01E1510F09D2C0BC09D2C9E0C85
:10048000911A1E2D06C080E290E0B3010E94AC02DA
:100490001F5F1E15C0F304C01E1510F4E11A01C041
:1004A000EE2404FF0FC080E390E0B3010E94AC0291
:1004B00002FF1DC001FD03C088E790E00EC088E583
:1004C00090E00BC0802F867891F001FF02C08BE294
:1004D00001C080E2F7FC8DE290E0B3010E94AC0223
:1004E00006C080E390E0B3010E94AC029A94D91454
:1004F000C0F3DA94F101ED0DF11D808190E0B301BC
:100500000E94AC02DD20A9F706C080E290E0B301B2
:100510000E94AC02EA94EE20C1F743CEF30166815B
:100520007781CB012B96E2E10C94270EFC0105901C
:10053000615070400110D8F7809590958E0F9F1FE5
:100540000895FC016150704001900110D8F780952A
:1005500090958E0F9F1F08950F931F93CF93DF9356
:100560008C01EB018B8181FF1BC082FF0DC02E81AE
:100570003F818C819D812817390764F4E881F981D6
:100580000193F983E88306C0E885F985802F0995F2
:10059000892B31F48E819F8101969F838E8302C0C7
:1005A0000FEF1FEFC801DF91CF911F910F910895B9
:1005B000FA01AA27283051F1203181F1E8946F9394
:1005C0006E7F6E5F7F4F8F4F9F4FAF4FB1E03ED03A
:1005D000B4E03CD0670F781F891F9A1FA11D680FD8
:1005E000791F8A1F911DA11D6A0F711D811D911D0B
:1005F000A11D20D009F468943F912AE0269F112480
:100600003019305D3193DEF6CF010895462F4770E3
:10061000405D4193B3E00FD0C9F7F6CF462F4F703E
:10062000405D4A3318F0495D31FD4052419302D09C
:10063000A9F7EACFB4E0A695979587957795679542
:10064000BA95C9F700976105710508959B01AC0142
:100650000A2E06945795479537952795BA95C9F769
:10066000620F731F841F951FA01D08950E94DA0555
:10067000882309F400C18091930190919401892B02
:1006800009F0F9C08091960187FDF5C0809196012F
:1006900090E08F7190709093910180939001A0E809
:1006A000B1E0E8E9F1E080E101900D928150E1F7DD
:1006B0008091960185FF13C08091960187FD0FC040
:1006C0008091960186FF02C080E804C08091960167
:1006D0008F71806C60E070E040E00E94D4068091F1
:1006E00081018B30C8F087EF91E060E071E00E94FB
:1006F000AD0D609190017091910187EF91E04AE01A
:1007000050E00E949A0D87EF91E0609180014AE0ED
:1007100050E00E943C0D089560919001709191010C
:1007200087EF91E04AE050E00E949A0D87EF91E058
:10073000609180014AE050E00E942A0D87EF91E02D
:1007400060E20E94730C87EF91E0609181014AE0C2
:1007500050E00E942A0D87EF91E060E20E94730C46
:10076000609182017091830187EF91E04AE050E04F
:100770000E949A0D87EF91E060E20E94730C6091F5
:1007800084017091850187EF91E04AE050E00E947A
:100790009A0D87EF91E060E20E94730C80918101D5
:1007A000823078F0609186017091870187EF91E047
:1007B0004AE050E00E949A0D87EF91E060E20E94CB
:1007C000730C80918101833078F060918801709181
:1007D000890187EF91E04AE050E00E949A0D87EF8F
:1007E00091E060E20E94730C80918101843078F086
:1007F00060918A0170918B0187EF91E04AE050E0AF
:100800000E949A0D87EF91E060E20E94730C809144
:100810008101853078F060918C0170918D0187EFB6
:1008200091E04AE050E00E949A0D87EF91E060E28B
:100830000E94730C80918101863078F060918E0166
:1008400070918F0187EF91E04AE050E00E949A0D8D
:1008500087EF91E060E20E94730C80918101873004
:1008600030F087EF91E069E171E00E94AD0D87EF14
:1008700091E00E947B0C0895EF92FF920F931F93DB
:10088000DF93CF93CDB7DEB7C055D0400FB6F89405
:10089000DEBF0FBECDBF07EF11E0C80140E855E253
:1008A00060E070E00E94D70A8EE162ED0E94AB0723
:1008B0008DB79EB708970FB6F8949EBF0FBE8DBF39
:1008C000EDB7FEB731967E010894E11CF11CADB77F
:1008D000BEB71296FC92EE92119786E391E0938355
:1008E00082838EE190E09583848382ED90E097830C
:1008F00086830E9495008DB79EB708960FB6F89430
:100900009EBF0FBE8DBFC801B7010E94B00DC801C8
:1009100069E571E00E94B00DC05BDF4F0FB6F8943F
:10092000DEBF0FBECDBFCF91DF911F910F91FF9022
:10093000EF900895809192018F5F809392010895C6
:10094000782F65B121E030E040E050E000906F0189
:1009500004C0220F331F441F551F0A94D2F7822F61
:100960008095862385B99EBD0DB407FEFDCF8EB55B
:100970007EBD0DB407FEFDCF8EB585B1282B25B900
:100980000895782FE8988CB581608CBD65B121E021
:1009900030E040E050E000906F0104C0220F331FB0
:1009A000441F551F0A94D2F7322F822F8095862339
:1009B00085B99EBD0DB407FEFDCF4EB57EBD0DB40D
:1009C00007FEFDCF2EB585B1382B35B98CB58E7F9E
:1009D0008CBDE89A942F80E030E0282B392BC90198
:1009E000089580E090E00E94A0048091E4018530A9
:1009F00009F077C08CB581608CBD25B181E090E0B5
:100A0000A0E0B0E000906F0104C0880F991FAA1FFA
:100A1000BB1F0A94D2F7982F8095822385B980EB6B
:100A20008EBD0DB407FEFDCF8EB51EBC0DB407FE06
:100A3000FDCF4EB520E085B1982B95B98CB58E7F52
:100A40008CBD422B8091E801882371F49091E701DD
:100A5000992351F08091E801E82FF0E0EB56FE4F2A
:100A600090838F5F8093E8018091E801E82FF0E0A8
:100A7000EB56FE4F40838F5F8093E8018091930196
:100A8000909194018427282F22952827022E2695BD
:100A900026952025022E269520252770082E892FA1
:100AA000269507942795902D8227069427959025C3
:100AB00082279093940180939301809197012091D4
:100AC000E80190E0049630E0821793072CF08091C3
:100AD000E801873408F46DC08DE092E80E94A0041C
:100AE00008958091E40187FF2EC0E09197018091E5
:100AF000E4018F5F8093E4018150ED5FE80FF0E047
:100B0000EB56FE4FE08180919301909194018E27E6
:100B1000282F22952827022E269526952025022E5D
:100B2000269520252770082E892F2695079427952E
:100B3000902D8227069427959025822790939401E3
:100B40008093930130C08091E4018F5F8093E40132
:100B50008150833019F184302CF4882399F081304E
:100B600009F516C0893019F08A30E1F402C0EDE2CF
:100B70001AC0E091E701909197018EEF891B809355
:100B8000E40111C08091930190919401E82F0BC072
:100B90008091930190919401E92F05C08DE092E836
:100BA0000E94A004EAEA8E2F90E0805098440E94B0
:100BB000A00408958091E401853009F042C080913D
:100BC00097012091E80190E0049630E082179307A6
:100BD00024F08091E8018734A0F184E08093E4015F
:100BE00080919701833430F081E090E090939401FC
:100BF000809393018091960186FF12C08091E3015A
:100C0000282F30E0C9018F7190704F9749F0809183
:100C1000960190E0822793278F719070892B89F439
:100C20008091930190919401892B09F052C0E09139
:100C3000E001F091E101309709F44BC080E00995A3
:100C400054C08091E401843011F080E008958091D7
:100C5000E201882351F080939701109296018091D0
:100C600096018093950183E004C0109297018091D2
:100C700097018093E8018FEF9FEF90939401809309
:100C800093012091E7012223D9F08227282F229572
:100C90002827022E269526952025022E26952025EA
:100CA0002770082E892F269507942795902D822747
:100CB0000694279590258227909394018093930121
:100CC00085E08093E4018DED92E80E94A00480E02D
:100CD00008958FEF9FEFAFEFBFEF8093DC0190930C
:100CE000DD01A093DE01B093DF0181E00895982F2C
:100CF00086FD05C0907E8091E3018F71980F9093DF
:100D00009601E091E001F091E101309711F081E06E
:100D100009958FEF9FEF90939401809393018091B9
:100D20009301909194012091E7018227282F229529
:100D30002827022E269526952025022E2695202549
:100D40002770082E892F269507942795902D8227A6
:100D50000694279590258227909394018093930180
:100D600086E08093E4018DE392E80E94A004089558
:100D70001F93182F87FF03C08DE092E80EC09927BC
:100D800087FD9095956E0E94C10485E092E80E94CF
:100D9000C104112321F087E092E80E94C10484E09D
:100DA0008093E4011F9108951F93182F409397019A
:100DB00028E931E0C90150E00E948C00812F0E9497
:100DC00077061F91089525B181E090E0A0E0B0E0A2
:100DD00000906F0104C0880F991FAA1FBB1F0A94BF
:100DE000D2F7282B25B924B1822B84B98AE061E09F
:100DF0000E94B8098AE061E00E9479098BE061E015
:100E00000E9479098CE060E00E9479098DE061E040
:100E10000E94790980E58CBD8DB581608DBD82E031
:100E200060E00E94790982E061E00E94B8090895BB
:100E30001F93162F8093E3014093E7013093E6015F
:100E40002093E5010E94E30680E090E00E94A00468
:100E500085E092E80E94A00480E098EB02C080E068
:100E600090E00E94A00482E00E940C0A892BB9F352
:100E7000812F90E0E4E0880F991FEA95E1F7876CF5
:100E800090680E94A0048091E5019091E601805055
:100E900090460E94A00486E096EC0E94A00482EA9C
:100EA00094E90E94A0048CEA92EC0E94A0041091A4
:100EB000E701112341F083E89AEC0E94A004812FFE
:100EC00090E09E6C06C08BE89AEC0E94A0048DE234
:100ED0009EEC0E94A00483E894EC0E94A00480E5AC
:100EE00098E90E94A00487E79CEC0E94A00480E09F
:100EF00090EE0E94A00480E098EC0E94A00489E497
:100F000090EC0E94A00484E08093E4018091E301CE
:100F100090E08F719070892B41F080E061EF74E078
:100F200040E050E00E94FE0703C080E00E942108DC
:100F30008091E3011F9108951F920F920FB60F92B7
:100F400011248F9381E08093E9018F910F900FBE60
:100F50000F901F9018950F931F93182F062F64E67C
:100F600070E080E090E00E941109812F61E0402F45
:100F700020E436E00E94180780E00E94B80681E96C
:100F800096EC0E94C10482EC94E90E94C10480E2C4
:100F900098E90E94C104A4E6B0E088E08C93EAE7F7
:100FA000F0E080818F7780838C9181608C931F919A
:100FB0000F9108951F920F920FB60F9211242F9345
:100FC0003F934F935F936F937F938F939F93AF93D1
:100FD000BF93EF93FF930E949A04FF91EF91BF910B
:100FE000AF919F918F917F916F915F914F913F91C1
:100FF0002F910F900FBE0F901F901895823000F523
:10100000E82FF0E0EE0FFF1FE651FE4F7183608383
:10101000882319F08130A1F408C0809169008C7F89
:10102000842B80936900E89A089580916900440FA9
:10103000551F440F551F837F842B80936900E99AC5
:101040000895823080F4882319F0813021F402C0A1
:10105000E89801C0E998E82FF0E0EE0FFF1FE65195
:10106000FE4F1182108208951F920F920FB60F92B9
:1010700011242F933F934F935F936F937F938F939D
:101080009F93AF93BF93EF93FF938091EA01909169
:10109000EB01892B29F0E091EA01F091EB01099530
:1010A000FF91EF91BF91AF919F918F917F916F9140
:1010B0005F914F913F912F910F900FBE0F901F9016
:1010C00018951F920F920FB60F9211242F933F93F2
:1010D0004F935F936F937F938F939F93AF93BF9340
:1010E000EF93FF938091EC019091ED01892B29F012
:1010F000E091EC01F091ED010995FF91EF91BF9125
:10110000AF919F918F917F916F915F914F913F919F
:101110002F910F900FBE0F901F9018951F920F9256
:101120000FB60F9211242F933F938F939F93AF93FA
:10113000BF938091F2019091F301A091F401B091DD
:10114000F5013091F6010196A11DB11D232F2D5FF0
:101150002D3720F02D570196A11DB11D2093F601CA
:101160008093F2019093F301A093F401B093F50101
:101170008091EE019091EF01A091F001B091F10109
:101180000196A11DB11D8093EE019093EF01A093F4
:10119000F001B093F101BF91AF919F918F913F9179
:1011A0002F910F900FBE0F901F901895789484B5D3
:1011B000826084BD84B5816084BD85B5826085BD53
:1011C00085B5816085BDEEE6F0E080818160808339
:1011D000E1E8F0E01082808182608083808181601C
:1011E0008083E0E8F0E0808181608083E1EBF0E0E3
:1011F000808184608083E0EBF0E080818160808387
:10120000EAE7F0E08081846080838081826080836F
:101210008081816080838081806880831092C1009A
:101220000895EF92FF920F931F93CF93DF937B016B
:101230008C013FB7F8948091EE019091EF01A0915D
:10124000F001B091F10126B5A89B05C02F3F19F020
:101250000196A11DB11D3FBFBA2FA92F982F882736
:10126000820F911DA11DB11D52E0880F991FAA1F69
:10127000BB1F5A95D1F7EC0130C00E94C30D3FB798
:10128000F8948091EE019091EF01A091F001B0915E
:10129000F10126B5A89B05C02F3F19F00196A11DAD
:1012A000B11D3FBFBA2FA92F982F8827820F911DFC
:1012B000A11DB11D32E0880F991FAA1FBB1F3A95CF
:1012C000D1F78C1B9D0B885E9340B8F20894E1081F
:1012D000F10801091109C851DC4FE114F1040105BD
:1012E000110559F6DF91CF911F910F91FF90EF906B
:1012F0000895CF93DF93482F50E0CA0186569F4F41
:10130000FC0134914A575F4FFA018491882369F1B7
:1013100090E0880F991FFC01E859FF4FA591B49107
:10132000FC01EE58FF4FC591D491662351F42FB7BD
:10133000F8948C91932F909589238C93888189239D
:101340000BC0623061F42FB7F8948C91932F909575
:1013500089238C938881832B88832FBF06C09FB7F6
:10136000F8948C91832B8C939FBFDF91CF9108953C
:10137000482F50E0CA0182559F4FFC012491CA01B9
:1013800086569F4FFC0194914A575F4FFA01349162
:10139000332309F440C0222351F1233071F024306B
:1013A00028F42130A1F0223011F514C02630B1F01C
:1013B0002730C1F02430D9F404C0809180008F77A9
:1013C00003C0809180008F7D8093800010C084B521
:1013D0008F7702C084B58F7D84BD09C08091B00035
:1013E0008F7703C08091B0008F7D8093B000E32F92
:1013F000F0E0EE0FFF1FEE58FF4FA591B4912FB70D
:10140000F894662321F48C919095892302C08C91E5
:10141000892B8C932FBF0895682F70E0CB018255E4
:101420009F4FFC012491CB0186569F4FFC014491B4
:101430006A577F4FFB019491992319F420E030E023
:101440003CC0222351F1233071F0243028F42130A4
:10145000A1F0223011F514C02630B1F02730C1F0D0
:101460002430D9F404C0809180008F7703C080912C
:1014700080008F7D8093800010C084B58F7702C07C
:1014800084B58F7D84BD09C08091B0008F7703C083
:101490008091B0008F7D8093B000892F90E0880FFD
:1014A000991F84589F4FFC01A591B4918C9120E025
:1014B00030E0842311F021E030E0C901089508955F
:1014C0001F920F920FB60F9211242F933F934F93B9
:1014D0008F939F93EF93FF938091C00082FD19C07B
:1014E0004091C60080911502282F30E02F5F3F4FBA
:1014F0002F7330708091160290E02817390759F049
:10150000E0911502F0E0E950FE4F42A3209315024E
:1015100002C08091C600FF91EF919F918F914F91F2
:101520003F912F910F900FBE0F901F9018958091B3
:1015300015022091160290E0805C9F4F821B91095A
:101540008F739070892B11F00E945F0A08951F928B
:101550000F920FB60F9211242F938F939F93EF93B7
:10156000FF939091170280911802981731F480919F
:10157000C1008F7D8093C10010C0E0911802F0E09F
:10158000E75AFD4F20818091180290E001968F73F9
:101590009070809318022093C600FF91EF919F9165
:1015A0008F912F910F900FBE0F901F901895AF92B3
:1015B000BF92DF92EF92FF920F931F93CF93DF932F
:1015C000EC017A018B01DD24403081EE580780E088
:1015D000680780E0780711F0DD24D39491E0A92E0C
:1015E000B12CE889F989DD2069F0C5010C8C02C0B5
:1015F000880F991F0A94E2F7808360E079E08DE319
:1016000090E005C0108260E874E88EE190E0A801E7
:1016100097010E94E30D21503040404050405695C4
:1016200047953795279580E12030380720F0DD2059
:1016300011F0DD24D6CFEC85FD853083EE85FF8566
:1016400020831D8EEA89FB89408121E030E0C901B9
:10165000088C02C0880F991F0A94E2F7482B408338
:10166000EA89FB894081C901098C02C0880F991F52
:101670000A94E2F7482B4083EA89FB894081C9013B
:101680000A8C02C0880F991F0A94E2F7482B408306
:10169000EA89FB8980810B8C02C0220F331F0A94D8
:1016A000E2F7209528232083DF91CF911F910F919E
:1016B000FF90EF90DF90BF90AF900895FC01268DD2
:1016C000878D30E0205C3F4F281B31092F7330702D
:1016D000C9010895FC01968D878D981719F42FEF95
:1016E0003FEF06C0878DE80FF11D82A1282F30E063
:1016F000C9010895DC015E969C915E975F968C917E
:101700005F97981719F42FEF3FEF10C05F968C91F9
:101710005F97FD01E80FF11D92A15F968C915F9795
:101720008F5F8F735F968C93292F30E0C9010895E6
:10173000DC015D968C915D97882339F05096ED9190
:10174000FC915197808186FFF9CF5D961C92089598
:10175000DC0190968C919097282F30E02F5F3F4FBF
:101760002F73307091968C91919790E028173907DC
:10177000C9F390968C919097FD01E80FF11DEE59F9
:10178000FF4F608390962C9390975296ED91FC9129
:101790005397208181E090E05B960C905B9702C0AC
:1017A000880F991F0A94E2F7282B208381E05D9629
:1017B0008C935D975096ED91FC9151978081806458
:1017C000808381E090E008951092FA011092F9016F
:1017D00088EE93E0A0E0B0E08093FB019093FC01E1
:1017E000A093FD01B093FE0184E791E09093F8018E
:1017F0008093F701109218028091180280931702CB
:1018000010921602809116028093150285EC90E0EA
:10181000909304028093030284EC90E0909306027C
:101820008093050280EC90E0909308028093070279
:1018300081EC90E090930A028093090282EC90E0A0
:1018400090930C0280930B0286EC90E090930E0232
:1018500080930D0284E080930F0283E08093100256
:1018600087E08093110285E08093120281E08093EB
:1018700013020895CF93DF930E94D6080E943C0480
:10188000C7E9DAE00E9436032097E1F30E94970A45
:10189000F9CFCF92DF92EF92FF920F931F93CF93E6
:1018A000DF937C016B018A01C0E0D0E00FC0D6015C
:1018B0006D916D01D701ED91FC910190F081E02DCA
:1018C000C7010995C80FD91F015010400115110516
:1018D00071F7CE01DF91CF911F910F91FF90EF90A3
:1018E000DF90CF900895DC01ED91FC910190F081A3
:1018F000E02D09950895EF92FF920F931F938C01AD
:10190000DC01ED91FC910190F081E02D6DE00995F5
:101910007C01D801ED91FC910190F081E02DC8018E
:101920006AE009959C012E0D3F1DC9011F910F9181
:10193000FF90EF900895CF93DF93EC01611571054F
:1019400019F420E030E00FC0DB010D900020E9F732
:101950001197A61BB70BE881F9810280F381E02D76
:10196000AD0109959C01C901DF91CF9108954F9276
:101970005F927F928F929F92AF92BF92CF92DF92AF
:10198000EF92FF920F931F93DF93CF93CDB7DEB704
:10199000A1970FB6F894DEBF0FBECDBF2C01742EF9
:1019A000CB01223008F42AE019A231E2C32ED12C57
:1019B000CC0EDD1E822E9924AA24BB24672D752F00
:1019C000A50194010E94E30D79018A01C801B701C4
:1019D000A50194010E94C40D472D461B0894C1081F
:1019E000D1084A3014F4405D01C0495CF6014083DF
:1019F000E114F1040105110521F07E2C5F2DC801D1
:101A0000DDCFC201B6010E949B0CA1960FB6F894DF
:101A1000DEBF0FBECDBFCF91DF911F910F91FF9021
:101A2000EF90DF90CF90BF90AF909F908F907F907E
:101A30005F904F900895DC012115310541F4ED913F
:101A4000FC910190F081E02D642F099508950E948A
:101A5000B70C0895EF92FF920F931F939A01E62E11
:101A6000FF2400E010E0B801A7010E941B0D1F91A8
:101A70000F91FF90EF900895CF92DF92EF92FF9237
:101A80000F931F936C01E62E9A01FF2400E010E0F3
:101A9000B801A7010E941B0D8C01C6010E947B0C9E
:101AA000080F191FC8011F910F91FF90EF90DF9051
:101AB000CF900895CF92DF92EF92FF920F931F93F2
:101AC000CF93DF93EC016A017B012115310541F4CD
:101AD000E881F9810190F081E02D642F09951FC004
:101AE0002A303105D1F477FF17C0E881F9810190E0
:101AF000F081E02D6DE209958C0144275527BA014C
:101B00004C195D096E097F09CE012AE00E94B70CCD
:101B10009801280F391F04C02AE00E94B70C9C01CD
:101B2000C901DF91CF911F910F91FF90EF90DF904E
:101B3000CF900895EF92FF920F931F937B019A012C
:101B40000027F7FC0095102FB801A7010E945A0D3D
:101B50001F910F91FF90EF9008950E949B0C0895A4
:101B6000EF92FF920F931F937C010E949B0C8C01BC
:101B7000C7010E947B0C080F191FC8011F910F910C
:101B8000FF90EF9008950895629FD001739FF00138
:101B9000829FE00DF11D649FE00DF11D929FF00DFD
:101BA000839FF00D749FF00D659FF00D9927729F34
:101BB000B00DE11DF91F639FB00DE11DF91FBD01BF
:101BC000CF0111240895A1E21A2EAA1BBB1BFD010F
:101BD0000DC0AA1FBB1FEE1FFF1FA217B307E4070C
:101BE000F50720F0A21BB30BE40BF50B661F771F64
:101BF000881F991F1A9469F7609570958095909544
:101C00009B01AC01BD01CF010895EE0FFF1F0590B0
:101C1000F491E02D09942F923F924F925F926F9230
:101C20007F928F929F92AF92BF92CF92DF92EF926C
:101C3000FF920F931F93CF93DF93CDB7DEB7CA1BED
:101C4000DB0B0FB6F894DEBF0FBECDBF09942A8818
:101C5000398848885F846E847D848C849B84AA84C0
:101C6000B984C884DF80EE80FD800C811B81AA814D
:101C7000B981CE0FD11D0FB6F894DEBF0FBECDBF18
:081C8000ED010895F894FFCF77
:101C88002349676E6F726520446174612066726FC4
:101C98006D204E6F64653A2000526563656976650C
:101CA80064207061636B65742061726520746F6F66
:101CB80020626967210053696D706C652052656305
:101CC80065697665720A4E6F64653A2564204E65CB
:101CD80074776F726B3A25640057616974696E672F
:101CE80020666F722064617461202E2E2E0A000215
:101CF80000000000A80B490C5E0B7A0B6A0B980BCE
:00000001FF
